{
  "_format": "hh-sol-artifact-1",
  "contractName": "FestivalTicket",
  "sourceName": "contracts/FestivalTicket.sol",
  "abi": [
    {
      "inputs": [
        {
          "internalType": "string",
          "name": "name_",
          "type": "string"
        },
        {
          "internalType": "string",
          "name": "symbol_",
          "type": "string"
        },
        {
          "internalType": "address",
          "name": "registry_",
          "type": "address"
        },
        {
          "internalType": "address",
          "name": "initialOwner",
          "type": "address"
        }
      ],
      "stateMutability": "nonpayable",
      "type": "constructor"
    },
    {
      "inputs": [
        {
          "internalType": "address",
          "name": "sender",
          "type": "address"
        },
        {
          "internalType": "uint256",
          "name": "tokenId",
          "type": "uint256"
        },
        {
          "internalType": "address",
          "name": "owner",
          "type": "address"
        }
      ],
      "name": "ERC721IncorrectOwner",
      "type": "error"
    },
    {
      "inputs": [
        {
          "internalType": "address",
          "name": "operator",
          "type": "address"
        },
        {
          "internalType": "uint256",
          "name": "tokenId",
          "type": "uint256"
        }
      ],
      "name": "ERC721InsufficientApproval",
      "type": "error"
    },
    {
      "inputs": [
        {
          "internalType": "address",
          "name": "approver",
          "type": "address"
        }
      ],
      "name": "ERC721InvalidApprover",
      "type": "error"
    },
    {
      "inputs": [
        {
          "internalType": "address",
          "name": "operator",
          "type": "address"
        }
      ],
      "name": "ERC721InvalidOperator",
      "type": "error"
    },
    {
      "inputs": [
        {
          "internalType": "address",
          "name": "owner",
          "type": "address"
        }
      ],
      "name": "ERC721InvalidOwner",
      "type": "error"
    },
    {
      "inputs": [
        {
          "internalType": "address",
          "name": "receiver",
          "type": "address"
        }
      ],
      "name": "ERC721InvalidReceiver",
      "type": "error"
    },
    {
      "inputs": [
        {
          "internalType": "address",
          "name": "sender",
          "type": "address"
        }
      ],
      "name": "ERC721InvalidSender",
      "type": "error"
    },
    {
      "inputs": [
        {
          "internalType": "uint256",
          "name": "tokenId",
          "type": "uint256"
        }
      ],
      "name": "ERC721NonexistentToken",
      "type": "error"
    },
    {
      "inputs": [
        {
          "internalType": "address",
          "name": "owner",
          "type": "address"
        }
      ],
      "name": "OwnableInvalidOwner",
      "type": "error"
    },
    {
      "inputs": [
        {
          "internalType": "address",
          "name": "account",
          "type": "address"
        }
      ],
      "name": "OwnableUnauthorizedAccount",
      "type": "error"
    },
    {
      "anonymous": false,
      "inputs": [
        {
          "indexed": true,
          "internalType": "address",
          "name": "owner",
          "type": "address"
        },
        {
          "indexed": true,
          "internalType": "address",
          "name": "approved",
          "type": "address"
        },
        {
          "indexed": true,
          "internalType": "uint256",
          "name": "tokenId",
          "type": "uint256"
        }
      ],
      "name": "Approval",
      "type": "event"
    },
    {
      "anonymous": false,
      "inputs": [
        {
          "indexed": true,
          "internalType": "address",
          "name": "owner",
          "type": "address"
        },
        {
          "indexed": true,
          "internalType": "address",
          "name": "operator",
          "type": "address"
        },
        {
          "indexed": false,
          "internalType": "bool",
          "name": "approved",
          "type": "bool"
        }
      ],
      "name": "ApprovalForAll",
      "type": "event"
    },
    {
      "anonymous": false,
      "inputs": [
        {
          "indexed": true,
          "internalType": "address",
          "name": "previousOwner",
          "type": "address"
        },
        {
          "indexed": true,
          "internalType": "address",
          "name": "newOwner",
          "type": "address"
        }
      ],
      "name": "OwnershipTransferred",
      "type": "event"
    },
    {
      "anonymous": false,
      "inputs": [
        {
          "indexed": true,
          "internalType": "address",
          "name": "from",
          "type": "address"
        },
        {
          "indexed": true,
          "internalType": "address",
          "name": "to",
          "type": "address"
        },
        {
          "indexed": true,
          "internalType": "uint256",
          "name": "tokenId",
          "type": "uint256"
        }
      ],
      "name": "Transfer",
      "type": "event"
    },
    {
      "inputs": [
        {
          "internalType": "address",
          "name": "to",
          "type": "address"
        },
        {
          "internalType": "uint256",
          "name": "tokenId",
          "type": "uint256"
        }
      ],
      "name": "approve",
      "outputs": [],
      "stateMutability": "nonpayable",
      "type": "function"
    },
    {
      "inputs": [
        {
          "internalType": "address",
          "name": "owner",
          "type": "address"
        }
      ],
      "name": "balanceOf",
      "outputs": [
        {
          "internalType": "uint256",
          "name": "",
          "type": "uint256"
        }
      ],
      "stateMutability": "view",
      "type": "function"
    },
    {
      "inputs": [
        {
          "internalType": "uint256",
          "name": "tokenId",
          "type": "uint256"
        }
      ],
      "name": "getApproved",
      "outputs": [
        {
          "internalType": "address",
          "name": "",
          "type": "address"
        }
      ],
      "stateMutability": "view",
      "type": "function"
    },
    {
      "inputs": [
        {
          "internalType": "address",
          "name": "owner",
          "type": "address"
        },
        {
          "internalType": "address",
          "name": "operator",
          "type": "address"
        }
      ],
      "name": "isApprovedForAll",
      "outputs": [
        {
          "internalType": "bool",
          "name": "",
          "type": "bool"
        }
      ],
      "stateMutability": "view",
      "type": "function"
    },
    {
      "inputs": [
        {
          "internalType": "address",
          "name": "to",
          "type": "address"
        }
      ],
      "name": "mintTo",
      "outputs": [
        {
          "internalType": "uint256",
          "name": "tokenId",
          "type": "uint256"
        }
      ],
      "stateMutability": "nonpayable",
      "type": "function"
    },
    {
      "inputs": [],
      "name": "name",
      "outputs": [
        {
          "internalType": "string",
          "name": "",
          "type": "string"
        }
      ],
      "stateMutability": "view",
      "type": "function"
    },
    {
      "inputs": [],
      "name": "owner",
      "outputs": [
        {
          "internalType": "address",
          "name": "",
          "type": "address"
        }
      ],
      "stateMutability": "view",
      "type": "function"
    },
    {
      "inputs": [
        {
          "internalType": "uint256",
          "name": "tokenId",
          "type": "uint256"
        }
      ],
      "name": "ownerOf",
      "outputs": [
        {
          "internalType": "address",
          "name": "",
          "type": "address"
        }
      ],
      "stateMutability": "view",
      "type": "function"
    },
    {
      "inputs": [],
      "name": "registry",
      "outputs": [
        {
          "internalType": "address",
          "name": "",
          "type": "address"
        }
      ],
      "stateMutability": "view",
      "type": "function"
    },
    {
      "inputs": [],
      "name": "renounceOwnership",
      "outputs": [],
      "stateMutability": "nonpayable",
      "type": "function"
    },
    {
      "inputs": [
        {
          "internalType": "address",
          "name": "from",
          "type": "address"
        },
        {
          "internalType": "address",
          "name": "to",
          "type": "address"
        },
        {
          "internalType": "uint256",
          "name": "tokenId",
          "type": "uint256"
        }
      ],
      "name": "safeTransferFrom",
      "outputs": [],
      "stateMutability": "nonpayable",
      "type": "function"
    },
    {
      "inputs": [
        {
          "internalType": "address",
          "name": "from",
          "type": "address"
        },
        {
          "internalType": "address",
          "name": "to",
          "type": "address"
        },
        {
          "internalType": "uint256",
          "name": "tokenId",
          "type": "uint256"
        },
        {
          "internalType": "bytes",
          "name": "data",
          "type": "bytes"
        }
      ],
      "name": "safeTransferFrom",
      "outputs": [],
      "stateMutability": "nonpayable",
      "type": "function"
    },
    {
      "inputs": [
        {
          "internalType": "address",
          "name": "operator",
          "type": "address"
        },
        {
          "internalType": "bool",
          "name": "approved",
          "type": "bool"
        }
      ],
      "name": "setApprovalForAll",
      "outputs": [],
      "stateMutability": "nonpayable",
      "type": "function"
    },
    {
      "inputs": [
        {
          "internalType": "bytes4",
          "name": "interfaceId",
          "type": "bytes4"
        }
      ],
      "name": "supportsInterface",
      "outputs": [
        {
          "internalType": "bool",
          "name": "",
          "type": "bool"
        }
      ],
      "stateMutability": "view",
      "type": "function"
    },
    {
      "inputs": [],
      "name": "symbol",
      "outputs": [
        {
          "internalType": "string",
          "name": "",
          "type": "string"
        }
      ],
      "stateMutability": "view",
      "type": "function"
    },
    {
      "inputs": [
        {
          "internalType": "uint256",
          "name": "tokenId",
          "type": "uint256"
        }
      ],
      "name": "tokenURI",
      "outputs": [
        {
          "internalType": "string",
          "name": "",
          "type": "string"
        }
      ],
      "stateMutability": "view",
      "type": "function"
    },
    {
      "inputs": [],
      "name": "totalSupply",
      "outputs": [
        {
          "internalType": "uint256",
          "name": "",
          "type": "uint256"
        }
      ],
      "stateMutability": "view",
      "type": "function"
    },
    {
      "inputs": [
        {
          "internalType": "address",
          "name": "from",
          "type": "address"
        },
        {
          "internalType": "address",
          "name": "to",
          "type": "address"
        },
        {
          "internalType": "uint256",
          "name": "tokenId",
          "type": "uint256"
        }
      ],
      "name": "transferFrom",
      "outputs": [],
      "stateMutability": "nonpayable",
      "type": "function"
    },
    {
      "inputs": [
        {
          "internalType": "address",
          "name": "newOwner",
          "type": "address"
        }
      ],
      "name": "transferOwnership",
      "outputs": [],
      "stateMutability": "nonpayable",
      "type": "function"
    }
  ],
  "bytecode": "0x608060405260016008553480156200001657600080fd5b5060405162001578380380620015788339810160408190526200003991620001f8565b80848460006200004a838262000318565b50600162000059828262000318565b5050506001600160a01b0381166200008b57604051631e4fbdf760e01b81526000600482015260240160405180910390fd5b6200009681620000c1565b5050600780546001600160a01b0319166001600160a01b039290921691909117905550620003e49050565b600680546001600160a01b038381166001600160a01b0319831681179093556040519116919082907f8be0079c531659141344cd1fd0a4f28419497f9722a3daafe3b4186f6b6457e090600090a35050565b634e487b7160e01b600052604160045260246000fd5b600082601f8301126200013b57600080fd5b81516001600160401b038082111562000158576200015862000113565b604051601f8301601f19908116603f0116810190828211818310171562000183576200018362000113565b8160405283815260209250866020858801011115620001a157600080fd5b600091505b83821015620001c55785820183015181830184015290820190620001a6565b6000602085830101528094505050505092915050565b80516001600160a01b0381168114620001f357600080fd5b919050565b600080600080608085870312156200020f57600080fd5b84516001600160401b03808211156200022757600080fd5b620002358883890162000129565b955060208701519150808211156200024c57600080fd5b506200025b8782880162000129565b9350506200026c60408601620001db565b91506200027c60608601620001db565b905092959194509250565b600181811c908216806200029c57607f821691505b602082108103620002bd57634e487b7160e01b600052602260045260246000fd5b50919050565b601f82111562000313576000816000526020600020601f850160051c81016020861015620002ee5750805b601f850160051c820191505b818110156200030f57828155600101620002fa565b5050505b505050565b81516001600160401b0381111562000334576200033462000113565b6200034c8162000345845462000287565b84620002c3565b602080601f8311600181146200038457600084156200036b5750858301515b600019600386901b1c1916600185901b1785556200030f565b600085815260208120601f198616915b82811015620003b55788860151825594840194600190910190840162000394565b5085821015620003d45787850151600019600388901b60f8161c191681555b5050505050600190811b01905550565b61118480620003f46000396000f3fe608060405234801561001057600080fd5b50600436106101215760003560e01c8063715018a6116100ad578063a22cb46511610071578063a22cb4651461024c578063b88d4fde1461025f578063c87b56dd14610272578063e985e9c514610285578063f2fde38b1461029857600080fd5b8063715018a614610205578063755edd171461020d5780637b103999146102205780638da5cb5b1461023357806395d89b411461024457600080fd5b806318160ddd116100f457806318160ddd146101a357806323b872dd146101b957806342842e0e146101cc5780636352211e146101df57806370a08231146101f257600080fd5b806301ffc9a71461012657806306fdde031461014e578063081812fc14610163578063095ea7b31461018e575b600080fd5b610139610134366004610db7565b6102ab565b60405190151581526020015b60405180910390f35b6101566102fd565b6040516101459190610e24565b610176610171366004610e37565b61038f565b6040516001600160a01b039091168152602001610145565b6101a161019c366004610e67565b6103b8565b005b6101ab6103c7565b604051908152602001610145565b6101a16101c7366004610e91565b6103dd565b6101a16101da366004610e91565b61046d565b6101766101ed366004610e37565b61048d565b6101ab610200366004610ecd565b610498565b6101a16104e0565b6101ab61021b366004610ecd565b6104f4565b600754610176906001600160a01b031681565b6006546001600160a01b0316610176565b610156610566565b6101a161025a366004610ee8565b610575565b6101a161026d366004610f3a565b610580565b610156610280366004610e37565b610598565b610139610293366004611016565b61060d565b6101a16102a6366004610ecd565b61063b565b60006001600160e01b031982166380ac58cd60e01b14806102dc57506001600160e01b03198216635b5e139f60e01b145b806102f757506301ffc9a760e01b6001600160e01b03198316145b92915050565b60606000805461030c90611049565b80601f016020809104026020016040519081016040528092919081815260200182805461033890611049565b80156103855780601f1061035a57610100808354040283529160200191610385565b820191906000526020600020905b81548152906001019060200180831161036857829003601f168201915b5050505050905090565b600061039a82610679565b506000828152600460205260409020546001600160a01b03166102f7565b6103c38282336106b2565b5050565b600060016008546103d89190611099565b905090565b6001600160a01b03821661040c57604051633250574960e11b8152600060048201526024015b60405180910390fd5b60006104198383336106bf565b9050836001600160a01b0316816001600160a01b031614610467576040516364283d7b60e01b81526001600160a01b0380861660048301526024820184905282166044820152606401610403565b50505050565b61048883838360405180602001604052806000815250610580565b505050565b60006102f782610679565b60006001600160a01b0382166104c4576040516322718ad960e21b815260006004820152602401610403565b506001600160a01b031660009081526003602052604090205490565b6104e86107b8565b6104f260006107e5565b565b6007546000906001600160a01b031633146105415760405162461bcd60e51b815260206004820152600d60248201526c6f6e6c7920726567697374727960981b6044820152606401610403565b60088054906000610551836110ac565b9190505590506105618282610837565b919050565b60606001805461030c90611049565b6103c333838361089c565b61058b8484846103dd565b610467338585858561093b565b60606105a382610679565b5060006105bb60408051602081019091526000815290565b905060008151116105db5760405180602001604052806000815250610606565b806105e584610a66565b6040516020016105f69291906110c5565b6040516020818303038152906040525b9392505050565b6001600160a01b03918216600090815260056020908152604080832093909416825291909152205460ff1690565b6106436107b8565b6001600160a01b03811661066d57604051631e4fbdf760e01b815260006004820152602401610403565b610676816107e5565b50565b6000818152600260205260408120546001600160a01b0316806102f757604051637e27328960e01b815260048101849052602401610403565b6104888383836001610af9565b6000828152600260205260408120546001600160a01b03908116908316156106ec576106ec818486610bff565b6001600160a01b0381161561072a57610709600085600080610af9565b6001600160a01b038116600090815260036020526040902080546000190190555b6001600160a01b03851615610759576001600160a01b0385166000908152600360205260409020805460010190555b60008481526002602052604080822080546001600160a01b0319166001600160a01b0389811691821790925591518793918516917fddf252ad1be2c89b69c2b068fc378daa952ba7f163c4a11628f55a4df523b3ef91a4949350505050565b6006546001600160a01b031633146104f25760405163118cdaa760e01b8152336004820152602401610403565b600680546001600160a01b038381166001600160a01b0319831681179093556040519116919082907f8be0079c531659141344cd1fd0a4f28419497f9722a3daafe3b4186f6b6457e090600090a35050565b6001600160a01b03821661086157604051633250574960e11b815260006004820152602401610403565b600061086f838360006106bf565b90506001600160a01b03811615610488576040516339e3563760e11b815260006004820152602401610403565b6001600160a01b0382166108ce57604051630b61174360e31b81526001600160a01b0383166004820152602401610403565b6001600160a01b03838116600081815260056020908152604080832094871680845294825291829020805460ff191686151590811790915591519182527f17307eab39ab6107e8899845ad3d59bd9653f200f220920489ca2b5937696c31910160405180910390a3505050565b6001600160a01b0383163b15610a5f57604051630a85bd0160e11b81526001600160a01b0384169063150b7a029061097d9088908890879087906004016110f4565b6020604051808303816000875af19250505080156109b8575060408051601f3d908101601f191682019092526109b591810190611131565b60015b610a21573d8080156109e6576040519150601f19603f3d011682016040523d82523d6000602084013e6109eb565b606091505b508051600003610a1957604051633250574960e11b81526001600160a01b0385166004820152602401610403565b805160208201fd5b6001600160e01b03198116630a85bd0160e11b14610a5d57604051633250574960e11b81526001600160a01b0385166004820152602401610403565b505b5050505050565b60606000610a7383610c63565b600101905060008167ffffffffffffffff811115610a9357610a93610f24565b6040519080825280601f01601f191660200182016040528015610abd576020820181803683370190505b5090508181016020015b600019016f181899199a1a9b1b9c1cb0b131b232b360811b600a86061a8153600a8504945084610ac757509392505050565b8080610b0d57506001600160a01b03821615155b15610bcf576000610b1d84610679565b90506001600160a01b03831615801590610b495750826001600160a01b0316816001600160a01b031614155b8015610b5c5750610b5a818461060d565b155b15610b855760405163a9fbf51f60e01b81526001600160a01b0384166004820152602401610403565b8115610bcd5783856001600160a01b0316826001600160a01b03167f8c5be1e5ebec7d5bd14f71427d1e84f3dd0314c0f7b2291e5b200ac8c7c3b92560405160405180910390a45b505b5050600090815260046020526040902080546001600160a01b0319166001600160a01b0392909216919091179055565b610c0a838383610d3b565b610488576001600160a01b038316610c3857604051637e27328960e01b815260048101829052602401610403565b60405163177e802f60e01b81526001600160a01b038316600482015260248101829052604401610403565b60008072184f03e93ff9f4daa797ed6e38ed64bf6a1f0160401b8310610ca25772184f03e93ff9f4daa797ed6e38ed64bf6a1f0160401b830492506040015b6d04ee2d6d415b85acef81000000008310610cce576d04ee2d6d415b85acef8100000000830492506020015b662386f26fc100008310610cec57662386f26fc10000830492506010015b6305f5e1008310610d04576305f5e100830492506008015b6127108310610d1857612710830492506004015b60648310610d2a576064830492506002015b600a83106102f75760010192915050565b60006001600160a01b03831615801590610d995750826001600160a01b0316846001600160a01b03161480610d755750610d75848461060d565b80610d9957506000828152600460205260409020546001600160a01b038481169116145b949350505050565b6001600160e01b03198116811461067657600080fd5b600060208284031215610dc957600080fd5b813561060681610da1565b60005b83811015610def578181015183820152602001610dd7565b50506000910152565b60008151808452610e10816020860160208601610dd4565b601f01601f19169290920160200192915050565b6020815260006106066020830184610df8565b600060208284031215610e4957600080fd5b5035919050565b80356001600160a01b038116811461056157600080fd5b60008060408385031215610e7a57600080fd5b610e8383610e50565b946020939093013593505050565b600080600060608486031215610ea657600080fd5b610eaf84610e50565b9250610ebd60208501610e50565b9150604084013590509250925092565b600060208284031215610edf57600080fd5b61060682610e50565b60008060408385031215610efb57600080fd5b610f0483610e50565b915060208301358015158114610f1957600080fd5b809150509250929050565b634e487b7160e01b600052604160045260246000fd5b60008060008060808587031215610f5057600080fd5b610f5985610e50565b9350610f6760208601610e50565b925060408501359150606085013567ffffffffffffffff80821115610f8b57600080fd5b818701915087601f830112610f9f57600080fd5b813581811115610fb157610fb1610f24565b604051601f8201601f19908116603f01168101908382118183101715610fd957610fd9610f24565b816040528281528a6020848701011115610ff257600080fd5b82602086016020830137600060208483010152809550505050505092959194509250565b6000806040838503121561102957600080fd5b61103283610e50565b915061104060208401610e50565b90509250929050565b600181811c9082168061105d57607f821691505b60208210810361107d57634e487b7160e01b600052602260045260246000fd5b50919050565b634e487b7160e01b600052601160045260246000fd5b818103818111156102f7576102f7611083565b6000600182016110be576110be611083565b5060010190565b600083516110d7818460208801610dd4565b8351908301906110eb818360208801610dd4565b01949350505050565b6001600160a01b038581168252841660208201526040810183905260806060820181905260009061112790830184610df8565b9695505050505050565b60006020828403121561114357600080fd5b815161060681610da156fea26469706673582212205c23406fe83faf327698d559b0fcb5fa96eb72b5a6979686b395504fadd989b264736f6c63430008180033",
  "linkReferences": {},
  "deployedLinkReferences": {}
}